{"abi":[{"type":"constructor","inputs":[{"name":"name_","type":"string","internalType":"string"},{"name":"symbol_","type":"string","internalType":"string"},{"name":"baseURI_","type":"string","internalType":"string"},{"name":"maxSupply_","type":"uint256","internalType":"uint256"}],"stateMutability":"nonpayable"},{"type":"function","name":"MAX_SUPPLY","inputs":[],"outputs":[{"name":"","type":"uint256","internalType":"uint256"}],"stateMutability":"view"},{"type":"function","name":"approve","inputs":[{"name":"to","type":"address","internalType":"address"},{"name":"tokenId","type":"uint256","internalType":"uint256"}],"outputs":[],"stateMutability":"nonpayable"},{"type":"function","name":"balanceOf","inputs":[{"name":"owner","type":"address","internalType":"address"}],"outputs":[{"name":"","type":"uint256","internalType":"uint256"}],"stateMutability":"view"},{"type":"function","name":"freeMint","inputs":[{"name":"amount","type":"uint256","internalType":"uint256"}],"outputs":[],"stateMutability":"nonpayable"},{"type":"function","name":"getApproved","inputs":[{"name":"tokenId","type":"uint256","internalType":"uint256"}],"outputs":[{"name":"","type":"address","internalType":"address"}],"stateMutability":"view"},{"type":"function","name":"isApprovedForAll","inputs":[{"name":"owner","type":"address","internalType":"address"},{"name":"operator","type":"address","internalType":"address"}],"outputs":[{"name":"","type":"bool","internalType":"bool"}],"stateMutability":"view"},{"type":"function","name":"name","inputs":[],"outputs":[{"name":"","type":"string","internalType":"string"}],"stateMutability":"view"},{"type":"function","name":"ownerOf","inputs":[{"name":"tokenId","type":"uint256","internalType":"uint256"}],"outputs":[{"name":"","type":"address","internalType":"address"}],"stateMutability":"view"},{"type":"function","name":"safeTransferFrom","inputs":[{"name":"from","type":"address","internalType":"address"},{"name":"to","type":"address","internalType":"address"},{"name":"tokenId","type":"uint256","internalType":"uint256"}],"outputs":[],"stateMutability":"nonpayable"},{"type":"function","name":"safeTransferFrom","inputs":[{"name":"from","type":"address","internalType":"address"},{"name":"to","type":"address","internalType":"address"},{"name":"tokenId","type":"uint256","internalType":"uint256"},{"name":"data","type":"bytes","internalType":"bytes"}],"outputs":[],"stateMutability":"nonpayable"},{"type":"function","name":"setApprovalForAll","inputs":[{"name":"operator","type":"address","internalType":"address"},{"name":"approved","type":"bool","internalType":"bool"}],"outputs":[],"stateMutability":"nonpayable"},{"type":"function","name":"supportsInterface","inputs":[{"name":"interfaceId","type":"bytes4","internalType":"bytes4"}],"outputs":[{"name":"","type":"bool","internalType":"bool"}],"stateMutability":"view"},{"type":"function","name":"symbol","inputs":[],"outputs":[{"name":"","type":"string","internalType":"string"}],"stateMutability":"view"},{"type":"function","name":"tokenByIndex","inputs":[{"name":"index","type":"uint256","internalType":"uint256"}],"outputs":[{"name":"","type":"uint256","internalType":"uint256"}],"stateMutability":"view"},{"type":"function","name":"tokenOfOwnerByIndex","inputs":[{"name":"owner","type":"address","internalType":"address"},{"name":"index","type":"uint256","internalType":"uint256"}],"outputs":[{"name":"","type":"uint256","internalType":"uint256"}],"stateMutability":"view"},{"type":"function","name":"tokenURI","inputs":[{"name":"tokenId","type":"uint256","internalType":"uint256"}],"outputs":[{"name":"","type":"string","internalType":"string"}],"stateMutability":"view"},{"type":"function","name":"totalSupply","inputs":[],"outputs":[{"name":"","type":"uint256","internalType":"uint256"}],"stateMutability":"view"},{"type":"function","name":"transferFrom","inputs":[{"name":"from","type":"address","internalType":"address"},{"name":"to","type":"address","internalType":"address"},{"name":"tokenId","type":"uint256","internalType":"uint256"}],"outputs":[],"stateMutability":"nonpayable"},{"type":"event","name":"Approval","inputs":[{"name":"owner","type":"address","indexed":true,"internalType":"address"},{"name":"approved","type":"address","indexed":true,"internalType":"address"},{"name":"tokenId","type":"uint256","indexed":true,"internalType":"uint256"}],"anonymous":false},{"type":"event","name":"ApprovalForAll","inputs":[{"name":"owner","type":"address","indexed":true,"internalType":"address"},{"name":"operator","type":"address","indexed":true,"internalType":"address"},{"name":"approved","type":"bool","indexed":false,"internalType":"bool"}],"anonymous":false},{"type":"event","name":"Transfer","inputs":[{"name":"from","type":"address","indexed":true,"internalType":"address"},{"name":"to","type":"address","indexed":true,"internalType":"address"},{"name":"tokenId","type":"uint256","indexed":true,"internalType":"uint256"}],"anonymous":false},{"type":"error","name":"ERC721EnumerableForbiddenBatchMint","inputs":[]},{"type":"error","name":"ERC721IncorrectOwner","inputs":[{"name":"sender","type":"address","internalType":"address"},{"name":"tokenId","type":"uint256","internalType":"uint256"},{"name":"owner","type":"address","internalType":"address"}]},{"type":"error","name":"ERC721InsufficientApproval","inputs":[{"name":"operator","type":"address","internalType":"address"},{"name":"tokenId","type":"uint256","internalType":"uint256"}]},{"type":"error","name":"ERC721InvalidApprover","inputs":[{"name":"approver","type":"address","internalType":"address"}]},{"type":"error","name":"ERC721InvalidOperator","inputs":[{"name":"operator","type":"address","internalType":"address"}]},{"type":"error","name":"ERC721InvalidOwner","inputs":[{"name":"owner","type":"address","internalType":"address"}]},{"type":"error","name":"ERC721InvalidReceiver","inputs":[{"name":"receiver","type":"address","internalType":"address"}]},{"type":"error","name":"ERC721InvalidSender","inputs":[{"name":"sender","type":"address","internalType":"address"}]},{"type":"error","name":"ERC721NonexistentToken","inputs":[{"name":"tokenId","type":"uint256","internalType":"uint256"}]},{"type":"error","name":"ERC721OutOfBoundsIndex","inputs":[{"name":"owner","type":"address","internalType":"address"},{"name":"index","type":"uint256","internalType":"uint256"}]}],"bytecode":{"object":"0x60a06040526000600b5534801561001557600080fd5b506040516117ff3803806117ff8339810160408190526100349161012b565b838360006100428382610245565b50600161004f8282610245565b50600a915061006090508382610245565b5060805250610304915050565b634e487b7160e01b600052604160045260246000fd5b600082601f83011261009457600080fd5b81516001600160401b03808211156100ae576100ae61006d565b604051601f8301601f19908116603f011681019082821181831017156100d6576100d661006d565b81604052838152602092508660208588010111156100f357600080fd5b600091505b8382101561011557858201830151818301840152908201906100f8565b6000602085830101528094505050505092915050565b6000806000806080858703121561014157600080fd5b84516001600160401b038082111561015857600080fd5b61016488838901610083565b9550602087015191508082111561017a57600080fd5b61018688838901610083565b9450604087015191508082111561019c57600080fd5b506101a987828801610083565b606096909601519497939650505050565b600181811c908216806101ce57607f821691505b6020821081036101ee57634e487b7160e01b600052602260045260246000fd5b50919050565b601f821115610240576000816000526020600020601f850160051c8101602086101561021d5750805b601f850160051c820191505b8181101561023c57828155600101610229565b5050505b505050565b81516001600160401b0381111561025e5761025e61006d565b6102728161026c84546101ba565b846101f4565b602080601f8311600181146102a7576000841561028f5750858301515b600019600386901b1c1916600185901b17855561023c565b600085815260208120601f198616915b828110156102d6578886015182559484019460019091019084016102b7565b50858210156102f45787850151600019600388901b60f8161c191681555b5050505050600190811b01905550565b6080516114d9610326600039600081816101d501526105f401526114d96000f3fe608060405234801561001057600080fd5b50600436106101165760003560e01c80634f6ccce7116100a257806395d89b411161007157806395d89b4114610256578063a22cb4651461025e578063b88d4fde14610271578063c87b56dd14610284578063e985e9c51461029757600080fd5b80634f6ccce71461020a5780636352211e1461021d57806370a08231146102305780637c928fe91461024357600080fd5b806318160ddd116100e957806318160ddd1461019857806323b872dd146101aa5780632f745c59146101bd57806332cb6b0c146101d057806342842e0e146101f757600080fd5b806301ffc9a71461011b57806306fdde0314610143578063081812fc14610158578063095ea7b314610183575b600080fd5b61012e6101293660046110db565b6102aa565b60405190151581526020015b60405180910390f35b61014b6102d5565b60405161013a9190611148565b61016b61016636600461115b565b610367565b6040516001600160a01b03909116815260200161013a565b610196610191366004611190565b610390565b005b6008545b60405190815260200161013a565b6101966101b83660046111ba565b61039f565b61019c6101cb366004611190565b61042f565b61019c7f000000000000000000000000000000000000000000000000000000000000000081565b6101966102053660046111ba565b610494565b61019c61021836600461115b565b6104b4565b61016b61022b36600461115b565b61050d565b61019c61023e3660046111f6565b610518565b61019661025136600461115b565b610560565b61014b610662565b61019661026c366004611211565b610671565b61019661027f366004611263565b61067c565b61014b61029236600461115b565b610693565b61012e6102a536600461133f565b6106fb565b60006001600160e01b0319821663780e9d6360e01b14806102cf57506102cf82610729565b92915050565b6060600080546102e490611372565b80601f016020809104026020016040519081016040528092919081815260200182805461031090611372565b801561035d5780601f106103325761010080835404028352916020019161035d565b820191906000526020600020905b81548152906001019060200180831161034057829003601f168201915b5050505050905090565b600061037282610779565b506000828152600460205260409020546001600160a01b03166102cf565b61039b8282336107b2565b5050565b6001600160a01b0382166103ce57604051633250574960e11b8152600060048201526024015b60405180910390fd5b60006103db8383336107bf565b9050836001600160a01b0316816001600160a01b031614610429576040516364283d7b60e01b81526001600160a01b03808616600483015260248201849052821660448201526064016103c5565b50505050565b600061043a83610518565b821061046b5760405163295f44f760e21b81526001600160a01b0384166004820152602481018390526044016103c5565b506001600160a01b03919091166000908152600660209081526040808320938352929052205490565b6104af8383836040518060200160405280600081525061067c565b505050565b60006104bf60085490565b82106104e85760405163295f44f760e21b815260006004820152602481018390526044016103c5565b600882815481106104fb576104fb6113ac565b90600052602060002001549050919050565b60006102cf82610779565b60006001600160a01b038216610544576040516322718ad960e21b8152600060048201526024016103c5565b506001600160a01b031660009081526003602052604090205490565b60058111156105bf5760405162461bcd60e51b815260206004820152602560248201527f596f752063616e206d696e7420757020746f203520746f6b656e7320617420616044820152642074696d6560d81b60648201526084016103c5565b600b5460005b828110156105ec576105d73383610894565b816105e1816113d8565b9250506001016105c5565b50600b8190557f000000000000000000000000000000000000000000000000000000000000000081111561039b5760405162461bcd60e51b815260206004820152601b60248201527f416c6c20746f6b656e732068617665206265656e206d696e746564000000000060448201526064016103c5565b6060600180546102e490611372565b61039b3383836108ae565b61068784848461039f565b6104298484848461094d565b606061069e82610779565b5060006106a9610a76565b905060008151116106c957604051806020016040528060008152506106f4565b806106d384610a85565b6040516020016106e49291906113f1565b6040516020818303038152906040525b9392505050565b6001600160a01b03918216600090815260056020908152604080832093909416825291909152205460ff1690565b60006001600160e01b031982166380ac58cd60e01b148061075a57506001600160e01b03198216635b5e139f60e01b145b806102cf57506301ffc9a760e01b6001600160e01b03198316146102cf565b6000818152600260205260408120546001600160a01b0316806102cf57604051637e27328960e01b8152600481018490526024016103c5565b6104af8383836001610b18565b6000806107cd858585610c1e565b90506001600160a01b03811661082a5761082584600880546000838152600960205260408120829055600182018355919091527ff3f7a9fe364faab93b216da50a3214154f22a0a2b415b23a84c8169e8b636ee30155565b61084d565b846001600160a01b0316816001600160a01b03161461084d5761084d8185610d17565b6001600160a01b0385166108695761086484610da8565b61088c565b846001600160a01b0316816001600160a01b03161461088c5761088c8585610e57565b949350505050565b61039b828260405180602001604052806000815250610ea7565b6001600160a01b0382166108e057604051630b61174360e31b81526001600160a01b03831660048201526024016103c5565b6001600160a01b03838116600081815260056020908152604080832094871680845294825291829020805460ff191686151590811790915591519182527f17307eab39ab6107e8899845ad3d59bd9653f200f220920489ca2b5937696c31910160405180910390a3505050565b6001600160a01b0383163b1561042957604051630a85bd0160e11b81526001600160a01b0384169063150b7a029061098f903390889087908790600401611420565b6020604051808303816000875af19250505080156109ca575060408051601f3d908101601f191682019092526109c79181019061145d565b60015b610a33573d8080156109f8576040519150601f19603f3d011682016040523d82523d6000602084013e6109fd565b606091505b508051600003610a2b57604051633250574960e11b81526001600160a01b03851660048201526024016103c5565b805181602001fd5b6001600160e01b03198116630a85bd0160e11b14610a6f57604051633250574960e11b81526001600160a01b03851660048201526024016103c5565b5050505050565b6060600a80546102e490611372565b60606000610a9283610ebe565b600101905060008167ffffffffffffffff811115610ab257610ab261124d565b6040519080825280601f01601f191660200182016040528015610adc576020820181803683370190505b5090508181016020015b600019016f181899199a1a9b1b9c1cb0b131b232b360811b600a86061a8153600a8504945084610ae657509392505050565b8080610b2c57506001600160a01b03821615155b15610bee576000610b3c84610779565b90506001600160a01b03831615801590610b685750826001600160a01b0316816001600160a01b031614155b8015610b7b5750610b7981846106fb565b155b15610ba45760405163a9fbf51f60e01b81526001600160a01b03841660048201526024016103c5565b8115610bec5783856001600160a01b0316826001600160a01b03167f8c5be1e5ebec7d5bd14f71427d1e84f3dd0314c0f7b2291e5b200ac8c7c3b92560405160405180910390a45b505b5050600090815260046020526040902080546001600160a01b0319166001600160a01b0392909216919091179055565b6000828152600260205260408120546001600160a01b0390811690831615610c4b57610c4b818486610f96565b6001600160a01b03811615610c8957610c68600085600080610b18565b6001600160a01b038116600090815260036020526040902080546000190190555b6001600160a01b03851615610cb8576001600160a01b0385166000908152600360205260409020805460010190555b60008481526002602052604080822080546001600160a01b0319166001600160a01b0389811691821790925591518793918516917fddf252ad1be2c89b69c2b068fc378daa952ba7f163c4a11628f55a4df523b3ef91a4949350505050565b6000610d2283610518565b600083815260076020526040902054909150808214610d75576001600160a01b03841660009081526006602090815260408083208584528252808320548484528184208190558352600790915290208190555b5060009182526007602090815260408084208490556001600160a01b039094168352600681528383209183525290812055565b600854600090610dba9060019061147a565b60008381526009602052604081205460088054939450909284908110610de257610de26113ac565b906000526020600020015490508060088381548110610e0357610e036113ac565b6000918252602080832090910192909255828152600990915260408082208490558582528120556008805480610e3b57610e3b61148d565b6001900381819060005260206000200160009055905550505050565b60006001610e6484610518565b610e6e919061147a565b6001600160a01b039093166000908152600660209081526040808320868452825280832085905593825260079052919091209190915550565b610eb18383610ffa565b6104af600084848461094d565b60008072184f03e93ff9f4daa797ed6e38ed64bf6a1f0160401b8310610efd5772184f03e93ff9f4daa797ed6e38ed64bf6a1f0160401b830492506040015b6d04ee2d6d415b85acef81000000008310610f29576d04ee2d6d415b85acef8100000000830492506020015b662386f26fc100008310610f4757662386f26fc10000830492506010015b6305f5e1008310610f5f576305f5e100830492506008015b6127108310610f7357612710830492506004015b60648310610f85576064830492506002015b600a83106102cf5760010192915050565b610fa183838361105f565b6104af576001600160a01b038316610fcf57604051637e27328960e01b8152600481018290526024016103c5565b60405163177e802f60e01b81526001600160a01b0383166004820152602481018290526044016103c5565b6001600160a01b03821661102457604051633250574960e11b8152600060048201526024016103c5565b6000611032838360006107bf565b90506001600160a01b038116156104af576040516339e3563760e11b8152600060048201526024016103c5565b60006001600160a01b0383161580159061088c5750826001600160a01b0316846001600160a01b03161480611099575061109984846106fb565b8061088c5750506000908152600460205260409020546001600160a01b03908116911614919050565b6001600160e01b0319811681146110d857600080fd5b50565b6000602082840312156110ed57600080fd5b81356106f4816110c2565b60005b838110156111135781810151838201526020016110fb565b50506000910152565b600081518084526111348160208601602086016110f8565b601f01601f19169290920160200192915050565b6020815260006106f4602083018461111c565b60006020828403121561116d57600080fd5b5035919050565b80356001600160a01b038116811461118b57600080fd5b919050565b600080604083850312156111a357600080fd5b6111ac83611174565b946020939093013593505050565b6000806000606084860312156111cf57600080fd5b6111d884611174565b92506111e660208501611174565b9150604084013590509250925092565b60006020828403121561120857600080fd5b6106f482611174565b6000806040838503121561122457600080fd5b61122d83611174565b91506020830135801515811461124257600080fd5b809150509250929050565b634e487b7160e01b600052604160045260246000fd5b6000806000806080858703121561127957600080fd5b61128285611174565b935061129060208601611174565b925060408501359150606085013567ffffffffffffffff808211156112b457600080fd5b818701915087601f8301126112c857600080fd5b8135818111156112da576112da61124d565b604051601f8201601f19908116603f011681019083821181831017156113025761130261124d565b816040528281528a602084870101111561131b57600080fd5b82602086016020830137600060208483010152809550505050505092959194509250565b6000806040838503121561135257600080fd5b61135b83611174565b915061136960208401611174565b90509250929050565b600181811c9082168061138657607f821691505b6020821081036113a657634e487b7160e01b600052602260045260246000fd5b50919050565b634e487b7160e01b600052603260045260246000fd5b634e487b7160e01b600052601160045260246000fd5b6000600182016113ea576113ea6113c2565b5060010190565b600083516114038184602088016110f8565b8351908301906114178183602088016110f8565b01949350505050565b6001600160a01b03858116825284166020820152604081018390526080606082018190526000906114539083018461111c565b9695505050505050565b60006020828403121561146f57600080fd5b81516106f4816110c2565b818103818111156102cf576102cf6113c2565b634e487b7160e01b600052603160045260246000fdfea26469706673582212202e928a03b5d6bbf79761fb18d54fd6312754244402d9706c53df40563dbde84064736f6c63430008190033","linkReferences":{}},"methodIdentifiers":{"MAX_SUPPLY()":"32cb6b0c","approve(address,uint256)":"095ea7b3","balanceOf(address)":"70a08231","freeMint(uint256)":"7c928fe9","getApproved(uint256)":"081812fc","isApprovedForAll(address,address)":"e985e9c5","name()":"06fdde03","ownerOf(uint256)":"6352211e","safeTransferFrom(address,address,uint256)":"42842e0e","safeTransferFrom(address,address,uint256,bytes)":"b88d4fde","setApprovalForAll(address,bool)":"a22cb465","supportsInterface(bytes4)":"01ffc9a7","symbol()":"95d89b41","tokenByIndex(uint256)":"4f6ccce7","tokenOfOwnerByIndex(address,uint256)":"2f745c59","tokenURI(uint256)":"c87b56dd","totalSupply()":"18160ddd","transferFrom(address,address,uint256)":"23b872dd"},"id":13}